{
  "contractName": "Bank",
  "abi": [
    {
      "inputs": [],
      "stateMutability": "nonpayable",
      "type": "constructor"
    },
    {
      "anonymous": false,
      "inputs": [
        {
          "indexed": true,
          "internalType": "address",
          "name": "previousOwner",
          "type": "address"
        },
        {
          "indexed": true,
          "internalType": "address",
          "name": "newOwner",
          "type": "address"
        }
      ],
      "name": "OwnershipTransferred",
      "type": "event"
    },
    {
      "inputs": [
        {
          "internalType": "uint256",
          "name": "",
          "type": "uint256"
        }
      ],
      "name": "account",
      "outputs": [
        {
          "internalType": "address",
          "name": "",
          "type": "address"
        }
      ],
      "stateMutability": "view",
      "type": "function",
      "constant": true
    },
    {
      "inputs": [
        {
          "internalType": "address",
          "name": "",
          "type": "address"
        }
      ],
      "name": "accountBalance",
      "outputs": [
        {
          "internalType": "uint256",
          "name": "",
          "type": "uint256"
        }
      ],
      "stateMutability": "view",
      "type": "function",
      "constant": true
    },
    {
      "inputs": [],
      "name": "bankBalance",
      "outputs": [
        {
          "internalType": "uint256",
          "name": "",
          "type": "uint256"
        }
      ],
      "stateMutability": "view",
      "type": "function",
      "constant": true
    },
    {
      "inputs": [],
      "name": "owner",
      "outputs": [
        {
          "internalType": "address",
          "name": "",
          "type": "address"
        }
      ],
      "stateMutability": "view",
      "type": "function",
      "constant": true
    },
    {
      "inputs": [],
      "name": "renounceOwnership",
      "outputs": [],
      "stateMutability": "nonpayable",
      "type": "function"
    },
    {
      "inputs": [
        {
          "internalType": "address",
          "name": "newOwner",
          "type": "address"
        }
      ],
      "name": "transferOwnership",
      "outputs": [],
      "stateMutability": "nonpayable",
      "type": "function"
    },
    {
      "inputs": [
        {
          "internalType": "address",
          "name": "_address",
          "type": "address"
        }
      ],
      "name": "createAccount",
      "outputs": [],
      "stateMutability": "nonpayable",
      "type": "function"
    },
    {
      "inputs": [
        {
          "internalType": "address",
          "name": "_account",
          "type": "address"
        }
      ],
      "name": "isAccount",
      "outputs": [
        {
          "internalType": "bool",
          "name": "",
          "type": "bool"
        }
      ],
      "stateMutability": "view",
      "type": "function",
      "constant": true
    },
    {
      "inputs": [
        {
          "internalType": "uint256",
          "name": "_amount",
          "type": "uint256"
        }
      ],
      "name": "deposit",
      "outputs": [],
      "stateMutability": "nonpayable",
      "type": "function"
    },
    {
      "inputs": [
        {
          "internalType": "uint256",
          "name": "_amount",
          "type": "uint256"
        }
      ],
      "name": "withdraw",
      "outputs": [],
      "stateMutability": "nonpayable",
      "type": "function"
    },
    {
      "inputs": [
        {
          "internalType": "address",
          "name": "_to",
          "type": "address"
        },
        {
          "internalType": "uint256",
          "name": "_amount",
          "type": "uint256"
        }
      ],
      "name": "transferTo",
      "outputs": [],
      "stateMutability": "nonpayable",
      "type": "function"
    },
    {
      "inputs": [
        {
          "internalType": "address",
          "name": "_account",
          "type": "address"
        }
      ],
      "name": "balanceOf",
      "outputs": [
        {
          "internalType": "uint256",
          "name": "",
          "type": "uint256"
        }
      ],
      "stateMutability": "view",
      "type": "function",
      "constant": true
    },
    {
      "inputs": [],
      "name": "getBankBalance",
      "outputs": [
        {
          "internalType": "uint256",
          "name": "",
          "type": "uint256"
        }
      ],
      "stateMutability": "view",
      "type": "function",
      "constant": true
    }
  ],
  "bytecode": "0x6080604052734f96fe3b7a6cf9725f59d353f723c1bdb64ca6aa600460006101000a81548173ffffffffffffffffffffffffffffffffffffffff021916908373ffffffffffffffffffffffffffffffffffffffff16021790555034801561006557600080fd5b50600061007661017c60201b60201c565b9050806000806101000a81548173ffffffffffffffffffffffffffffffffffffffff021916908373ffffffffffffffffffffffffffffffffffffffff1602179055508073ffffffffffffffffffffffffffffffffffffffff16600073ffffffffffffffffffffffffffffffffffffffff167f8be0079c531659141344cd1fd0a4f28419497f9722a3daafe3b4186f6b6457e060405160405180910390a3506001339080600181540180825580915050600190039060005260206000200160009091909190916101000a81548173ffffffffffffffffffffffffffffffffffffffff021916908373ffffffffffffffffffffffffffffffffffffffff160217905550610184565b600033905090565b611250806101936000396000f3fe608060405234801561001057600080fd5b50600436106100cf5760003560e01c8063715018a61161008c5780639859387b116100665780639859387b146102d4578063b6b55f2514610318578063d294cb0f14610346578063f2fde38b1461039e576100cf565b8063715018a6146102785780637b83b50b146102825780638da5cb5b146102a0576100cf565b806325ca4c9c146100d457806328657aa51461012e5780632ccb1b301461014c5780632dd7c6581461019a5780632e1a7d4d146101f257806370a0823114610220575b600080fd5b610116600480360360208110156100ea57600080fd5b81019080803573ffffffffffffffffffffffffffffffffffffffff1690602001909291905050506103e2565b60405180821515815260200191505060405180910390f35b610136610484565b6040518082815260200191505060405180910390f35b6101986004803603604081101561016257600080fd5b81019080803573ffffffffffffffffffffffffffffffffffffffff1690602001909291908035906020019092919050505061048a565b005b6101c6600480360360208110156101b057600080fd5b81019080803590602001909291905050506105a4565b604051808273ffffffffffffffffffffffffffffffffffffffff16815260200191505060405180910390f35b61021e6004803603602081101561020857600080fd5b81019080803590602001909291905050506105e3565b005b6102626004803603602081101561023657600080fd5b81019080803573ffffffffffffffffffffffffffffffffffffffff1690602001909291905050506106fb565b6040518082815260200191505060405180910390f35b610280610744565b005b61028a6108b1565b6040518082815260200191505060405180910390f35b6102a86108bb565b604051808273ffffffffffffffffffffffffffffffffffffffff16815260200191505060405180910390f35b610316600480360360208110156102ea57600080fd5b81019080803573ffffffffffffffffffffffffffffffffffffffff1690602001909291905050506108e4565b005b6103446004803603602081101561032e57600080fd5b810190808035906020019092919050505061095d565b005b6103886004803603602081101561035c57600080fd5b81019080803573ffffffffffffffffffffffffffffffffffffffff169060200190929190505050610a8a565b6040518082815260200191505060405180910390f35b6103e0600480360360208110156103b457600080fd5b81019080803573ffffffffffffffffffffffffffffffffffffffff169060200190929190505050610aa2565b005b600080600090505b600180549050811015610479578273ffffffffffffffffffffffffffffffffffffffff166001828154811061041b57fe5b9060005260206000200160009054906101000a900473ffffffffffffffffffffffffffffffffffffffff1673ffffffffffffffffffffffffffffffffffffffff16141561046c57600191505061047f565b80806001019150506103ea565b50600090505b919050565b60035481565b6000811161049757600080fd5b6104a0826103e2565b80156104b157506104b0336103e2565b5b6104ba57600080fd5b80600260003373ffffffffffffffffffffffffffffffffffffffff1673ffffffffffffffffffffffffffffffffffffffff16815260200190815260200160002054101561050657600080fd5b80600260003373ffffffffffffffffffffffffffffffffffffffff1673ffffffffffffffffffffffffffffffffffffffff1681526020019081526020016000206000828254039250508190555080600260008473ffffffffffffffffffffffffffffffffffffffff1673ffffffffffffffffffffffffffffffffffffffff168152602001908152602001600020600082825401925050819055505050565b600181815481106105b457600080fd5b906000526020600020016000915054906101000a900473ffffffffffffffffffffffffffffffffffffffff1681565b600081116105f057600080fd5b6105f9336103e2565b61060257600080fd5b80600260003373ffffffffffffffffffffffffffffffffffffffff1673ffffffffffffffffffffffffffffffffffffffff16815260200190815260200160002054101561064e57600080fd5b80600260003373ffffffffffffffffffffffffffffffffffffffff1673ffffffffffffffffffffffffffffffffffffffff16815260200190815260200160002060008282540392505081905550806003600082825403925050819055506106f83382600460009054906101000a900473ffffffffffffffffffffffffffffffffffffffff1673ffffffffffffffffffffffffffffffffffffffff16610c949092919063ffffffff16565b50565b6000600260008373ffffffffffffffffffffffffffffffffffffffff1673ffffffffffffffffffffffffffffffffffffffff168152602001908152602001600020549050919050565b61074c610d36565b73ffffffffffffffffffffffffffffffffffffffff1661076a6108bb565b73ffffffffffffffffffffffffffffffffffffffff16146107f3576040517f08c379a00000000000000000000000000000000000000000000000000000000081526004018080602001828103825260208152602001807f4f776e61626c653a2063616c6c6572206973206e6f7420746865206f776e657281525060200191505060405180910390fd5b600073ffffffffffffffffffffffffffffffffffffffff1660008054906101000a900473ffffffffffffffffffffffffffffffffffffffff1673ffffffffffffffffffffffffffffffffffffffff167f8be0079c531659141344cd1fd0a4f28419497f9722a3daafe3b4186f6b6457e060405160405180910390a360008060006101000a81548173ffffffffffffffffffffffffffffffffffffffff021916908373ffffffffffffffffffffffffffffffffffffffff160217905550565b6000600354905090565b60008060009054906101000a900473ffffffffffffffffffffffffffffffffffffffff16905090565b6108ed816103e2565b156108f757600080fd5b6001819080600181540180825580915050600190039060005260206000200160009091909190916101000a81548173ffffffffffffffffffffffffffffffffffffffff021916908373ffffffffffffffffffffffffffffffffffffffff16021790555050565b6000811161096a57600080fd5b610973336103e2565b6109db576001339080600181540180825580915050600190039060005260206000200160009091909190916101000a81548173ffffffffffffffffffffffffffffffffffffffff021916908373ffffffffffffffffffffffffffffffffffffffff1602179055505b610a2a333083600460009054906101000a900473ffffffffffffffffffffffffffffffffffffffff1673ffffffffffffffffffffffffffffffffffffffff16610d3e909392919063ffffffff16565b8060036000828254019250508190555080600260003373ffffffffffffffffffffffffffffffffffffffff1673ffffffffffffffffffffffffffffffffffffffff1681526020019081526020016000206000828254019250508190555050565b60026020528060005260406000206000915090505481565b610aaa610d36565b73ffffffffffffffffffffffffffffffffffffffff16610ac86108bb565b73ffffffffffffffffffffffffffffffffffffffff1614610b51576040517f08c379a00000000000000000000000000000000000000000000000000000000081526004018080602001828103825260208152602001807f4f776e61626c653a2063616c6c6572206973206e6f7420746865206f776e657281525060200191505060405180910390fd5b600073ffffffffffffffffffffffffffffffffffffffff168173ffffffffffffffffffffffffffffffffffffffff161415610bd7576040517f08c379a00000000000000000000000000000000000000000000000000000000081526004018080602001828103825260268152602001806111a56026913960400191505060405180910390fd5b8073ffffffffffffffffffffffffffffffffffffffff1660008054906101000a900473ffffffffffffffffffffffffffffffffffffffff1673ffffffffffffffffffffffffffffffffffffffff167f8be0079c531659141344cd1fd0a4f28419497f9722a3daafe3b4186f6b6457e060405160405180910390a3806000806101000a81548173ffffffffffffffffffffffffffffffffffffffff021916908373ffffffffffffffffffffffffffffffffffffffff16021790555050565b610d318363a9059cbb60e01b8484604051602401808373ffffffffffffffffffffffffffffffffffffffff16815260200182815260200192505050604051602081830303815290604052907bffffffffffffffffffffffffffffffffffffffffffffffffffffffff19166020820180517bffffffffffffffffffffffffffffffffffffffffffffffffffffffff8381831617835250505050610dff565b505050565b600033905090565b610df9846323b872dd60e01b858585604051602401808473ffffffffffffffffffffffffffffffffffffffff1681526020018373ffffffffffffffffffffffffffffffffffffffff1681526020018281526020019350505050604051602081830303815290604052907bffffffffffffffffffffffffffffffffffffffffffffffffffffffff19166020820180517bffffffffffffffffffffffffffffffffffffffffffffffffffffffff8381831617835250505050610dff565b50505050565b6000610e61826040518060400160405280602081526020017f5361666545524332303a206c6f772d6c6576656c2063616c6c206661696c65648152508573ffffffffffffffffffffffffffffffffffffffff16610eee9092919063ffffffff16565b9050600081511115610ee957808060200190516020811015610e8257600080fd5b8101908080519060200190929190505050610ee8576040517f08c379a000000000000000000000000000000000000000000000000000000000815260040180806020018281038252602a8152602001806111f1602a913960400191505060405180910390fd5b5b505050565b6060610efd8484600085610f06565b90509392505050565b6060823073ffffffffffffffffffffffffffffffffffffffff16311015610f78576040517f08c379a00000000000000000000000000000000000000000000000000000000081526004018080602001828103825260268152602001806111cb6026913960400191505060405180910390fd5b610f81856110c5565b610ff3576040517f08c379a000000000000000000000000000000000000000000000000000000000815260040180806020018281038252601d8152602001807f416464726573733a2063616c6c20746f206e6f6e2d636f6e747261637400000081525060200191505060405180910390fd5b6000808673ffffffffffffffffffffffffffffffffffffffff1685876040518082805190602001908083835b60208310611042578051825260208201915060208101905060208303925061101f565b6001836020036101000a03801982511681845116808217855250505050505090500191505060006040518083038185875af1925050503d80600081146110a4576040519150601f19603f3d011682016040523d82523d6000602084013e6110a9565b606091505b50915091506110b98282866110d8565b92505050949350505050565b600080823b905060008111915050919050565b606083156110e85782905061119d565b6000835111156110fb5782518084602001fd5b816040517f08c379a00000000000000000000000000000000000000000000000000000000081526004018080602001828103825283818151815260200191508051906020019080838360005b83811015611162578082015181840152602081019050611147565b50505050905090810190601f16801561118f5780820380516001836020036101000a031916815260200191505b509250505060405180910390fd5b939250505056fe4f776e61626c653a206e6577206f776e657220697320746865207a65726f2061646472657373416464726573733a20696e73756666696369656e742062616c616e636520666f722063616c6c5361666545524332303a204552433230206f7065726174696f6e20646964206e6f742073756363656564a2646970667358221220380ae59f084516c6f641f9a2dd46aad8919a1e4f2e30bb545c2be8dc38ce2fca64736f6c63430007060033",
  "immutableReferences": {},
  "source": "// SPDX-License-Identifier: MIT\n\npragma solidity 0.7.6;\n\nimport \"@openzeppelin/contracts/token/ERC20/ERC20.sol\";\nimport \"@openzeppelin/contracts/math/SafeMath.sol\";\nimport \"@openzeppelin/contracts/access/Ownable.sol\";\nimport \"@openzeppelin/contracts/token/ERC20/SafeERC20.sol\";\n\ncontract Bank is Ownable {\n    using SafeERC20 for ERC20;\n    using SafeMath for uint256;\n    address[] public account;\n\n    mapping(address => uint256) public accountBalance;\n    uint256 public bankBalance;\n\n    address internal DAI = 0x4F96Fe3b7A6Cf9725f59d353F723c1bDb64CA6Aa;\n\n    constructor() {\n        account.push(msg.sender);\n    }\n\n    function createAccount(address _address) public {\n        require(!isAccount(_address));\n        account.push(_address);\n    }\n\n    function isAccount(address _account) public view returns (bool) {\n        for (uint256 i = 0; i < account.length; i++) {\n            if (account[i] == _account) {\n                return true;\n            }\n        }\n        return false;\n    }\n\n    function deposit(uint256 _amount) public {\n        require(_amount > 0);\n        if (!isAccount(msg.sender)) {\n            account.push(msg.sender);\n        }\n        ERC20(DAI).safeTransferFrom(msg.sender, address(this), _amount);\n        bankBalance += _amount;\n        accountBalance[msg.sender] += _amount;\n    }\n\n    function withdraw(uint256 _amount) public {\n        require(_amount > 0);\n        require(isAccount(msg.sender));\n        require(accountBalance[msg.sender] >= _amount);\n        accountBalance[msg.sender] -= _amount;\n        bankBalance -= _amount;\n        ERC20(DAI).safeTransfer(msg.sender, _amount);\n    }\n\n    function transferTo(address _to, uint256 _amount) public {\n        require(_amount > 0);\n        require(isAccount(_to) && isAccount(msg.sender));\n        require(accountBalance[msg.sender] >= _amount);\n        accountBalance[msg.sender] -= _amount;\n        accountBalance[_to] += _amount;\n    }\n\n    function balanceOf(address _account) public view returns (uint256) {\n        return accountBalance[_account];\n    }\n\n    function getBankBalance() public view returns (uint256) {\n        return bankBalance;\n    }\n}\n",
  "sourcePath": "/Users/aomwara/aomdev/simple-bank/contracts/Bank.sol",
  "compiler": {
    "name": "solc",
    "version": "0.7.6+commit.7338295f.Emscripten.clang"
  },
  "schemaVersion": "3.4.3",
  "updatedAt": "2022-05-06T17:04:14.404Z",
  "networkType": "ethereum",
  "devdoc": {
    "kind": "dev",
    "methods": {
      "owner()": {
        "details": "Returns the address of the current owner."
      },
      "renounceOwnership()": {
        "details": "Leaves the contract without owner. It will not be possible to call `onlyOwner` functions anymore. Can only be called by the current owner. NOTE: Renouncing ownership will leave the contract without an owner, thereby removing any functionality that is only available to the owner."
      },
      "transferOwnership(address)": {
        "details": "Transfers ownership of the contract to a new account (`newOwner`). Can only be called by the current owner."
      }
    },
    "version": 1
  },
  "userdoc": {
    "kind": "user",
    "methods": {},
    "version": 1
  }
}